:10000000000000000000B6288313B700B801B80D47
:10001000370884000800AF0026080319AA282F0813
:10002000840000080319AA287D20AF0AA6030C2823
:100030002D20031818286D20B3010830AE006E2063
:100040002D200318B30AB61EB301AD0CAE0B1F284A
:10005000B61AAD136E202D08080021088400280868
:100060008417800484130005361B2806FF3E080011
:10007000B10021088400A901F030A9050830B200C0
:1000800003100318A90A5320B10CB20B4128000039
:10009000B61A290C53204C28031453202508AE000F
:1000A00024088120AA288413B61F62280008280487
:1000B000361F28068000841700082804031C280621
:1000C00080006E2800082804031C2806361B28061A
:1000D00080008417280980056E28291736081F39E3
:1000E000FF3EAC003508F53E0318AC0A291F8E28E8
:1000F0002913AB000230A5208E28A01A382808004A
:10010000AE01AD00FF30AD07031CAE07031CAA28EB
:100110000330AC00DF308E208228AC01E83EAB001B
:10012000AC09FC30031C9728AB0703189428AB07D5
:100130000000AC0F94282B189D28AB1CA1280000B0
:10014000A12808000310AC0CAB0CFF3E0318A2283A
:100150002B08AA288313831203130800B100250873
:10016000B2003108250704200008AA28830183165D
:100170009F01073083129900013083168500831296
:100180000530A1000130A800B6008C30B500AA01EE
:1001900018202A083B3E84002D088000AA0A2A085D
:1001A000083C031DC8280530A1001030A80001300C
:1001B000B6008C30B500A501A4012030A0000830A5
:1001C000A600B0013B300B200A3038200530A100DA
:1001D0002030A8000130B6008C30B500A501A40184
:1001E0002030A0000830A600B0013B300B200A30C0
:0801F0003820BF28FA28FB2883
:02400E00D43F9D
:00000001FF
