:10000000000000000000B728A801AF00B001A01157
:1000100028080319A0150530A7002730AE001030BE
:100020001D200330AE00E8301D20AE0164301D20DD
:10003000AE010A301D202F082428AD003008AC0086
:100040002F08AB0097202B08AB00A7030319A011C2
:10005000280803192E282702031835282B08031D0A
:10006000A011A0193528303E75280800B1002208DB
:100070008400AA01F030AA050830B200031003186A
:10008000AA0A5120B10CB20B3F280000B51A2A0C65
:1000900051204A28031451202608AE002508792053
:1000A000B3288413B51F602800082904351F2906CA
:1000B0008000841700082904031C290680006B288F
:1000C00000082904031C2906351B29068000841713
:1000D000290980056B2835081F39003EAC0034081B
:1000E000003E0318AC0A00008628A11A3628080032
:1000F000AE01AD00FF30AD07031CAE07031CB328F3
:100100000000AC01003086207A28AC01FC3EAB0038
:10011000FF3000008C28AB0700008E288F28902825
:1001200091280000031CAC07031C08008B28B001B9
:10013000AF011030B1002C0DAF0DB00D2D08AF0286
:100140002E08031C2E0FB0020318AD282D08AF0790
:100150002E0803182E0FB0070310AB0DAC0DB10B1A
:100160009B282B08080083138312031308008301C4
:10017000A00183169F010730831299001F30831658
:100180009F00073083129900173083168500833053
:100190008312B8008730B9008B30BA008F30BB00B3
:1001A000BC013C08383E840000089F009F18D628F8
:1001B0001E08BD0083161E088312BE000530A20073
:1001C0002030A9000130B5008C30B400A601A50193
:1001D0002030A1003C0804202C3036203D080420AB
:1001E0002C3036203E0804200D3036200A303620D0
:1001F000003036200330AE00E8307920BC0A0430ED
:0E0200003C02031D0429BC01D1280529062952
:02400E00E13F90
:00000001FF
